{
  "_format": "hh-sol-artifact-1",
  "contractName": "CrowdfundingPlatform",
  "sourceName": "contracts/CrowdfundingPlatform.sol",
  "abi": [
    {
      "inputs": [
        {
          "internalType": "uint256",
          "name": "_platformFee",
          "type": "uint256"
        }
      ],
      "stateMutability": "nonpayable",
      "type": "constructor"
    },
    {
      "anonymous": false,
      "inputs": [
        {
          "indexed": true,
          "internalType": "uint256",
          "name": "campaignId",
          "type": "uint256"
        }
      ],
      "name": "CampaignCancelled",
      "type": "event"
    },
    {
      "anonymous": false,
      "inputs": [
        {
          "indexed": true,
          "internalType": "uint256",
          "name": "campaignId",
          "type": "uint256"
        },
        {
          "indexed": true,
          "internalType": "address",
          "name": "creator",
          "type": "address"
        },
        {
          "indexed": false,
          "internalType": "string",
          "name": "title",
          "type": "string"
        },
        {
          "indexed": false,
          "internalType": "uint256",
          "name": "goal",
          "type": "uint256"
        },
        {
          "indexed": false,
          "internalType": "uint256",
          "name": "deadline",
          "type": "uint256"
        },
        {
          "indexed": false,
          "internalType": "string",
          "name": "category",
          "type": "string"
        }
      ],
      "name": "CampaignCreated",
      "type": "event"
    },
    {
      "anonymous": false,
      "inputs": [
        {
          "indexed": true,
          "internalType": "uint256",
          "name": "campaignId",
          "type": "uint256"
        },
        {
          "indexed": false,
          "internalType": "enum CrowdfundingPlatform.CampaignStatus",
          "name": "status",
          "type": "uint8"
        }
      ],
      "name": "CampaignStatusChanged",
      "type": "event"
    },
    {
      "anonymous": false,
      "inputs": [
        {
          "indexed": false,
          "internalType": "string",
          "name": "category",
          "type": "string"
        }
      ],
      "name": "CategoryAdded",
      "type": "event"
    },
    {
      "anonymous": false,
      "inputs": [
        {
          "indexed": true,
          "internalType": "uint256",
          "name": "campaignId",
          "type": "uint256"
        },
        {
          "indexed": true,
          "internalType": "address",
          "name": "contributor",
          "type": "address"
        },
        {
          "indexed": false,
          "internalType": "uint256",
          "name": "amount",
          "type": "uint256"
        },
        {
          "indexed": false,
          "internalType": "uint256",
          "name": "totalRaised",
          "type": "uint256"
        }
      ],
      "name": "ContributionMade",
      "type": "event"
    },
    {
      "anonymous": false,
      "inputs": [
        {
          "indexed": true,
          "internalType": "uint256",
          "name": "campaignId",
          "type": "uint256"
        },
        {
          "indexed": true,
          "internalType": "address",
          "name": "creator",
          "type": "address"
        },
        {
          "indexed": false,
          "internalType": "uint256",
          "name": "amount",
          "type": "uint256"
        }
      ],
      "name": "FundsWithdrawn",
      "type": "event"
    },
    {
      "anonymous": false,
      "inputs": [
        {
          "indexed": false,
          "internalType": "uint256",
          "name": "newFee",
          "type": "uint256"
        }
      ],
      "name": "PlatformFeeChanged",
      "type": "event"
    },
    {
      "anonymous": false,
      "inputs": [
        {
          "indexed": true,
          "internalType": "uint256",
          "name": "campaignId",
          "type": "uint256"
        },
        {
          "indexed": true,
          "internalType": "address",
          "name": "contributor",
          "type": "address"
        },
        {
          "indexed": false,
          "internalType": "uint256",
          "name": "amount",
          "type": "uint256"
        }
      ],
      "name": "RefundClaimed",
      "type": "event"
    },
    {
      "inputs": [],
      "name": "MAX_FEE",
      "outputs": [
        {
          "internalType": "uint256",
          "name": "",
          "type": "uint256"
        }
      ],
      "stateMutability": "view",
      "type": "function"
    },
    {
      "inputs": [
        {
          "internalType": "string",
          "name": "_category",
          "type": "string"
        }
      ],
      "name": "addCategory",
      "outputs": [],
      "stateMutability": "nonpayable",
      "type": "function"
    },
    {
      "inputs": [
        {
          "internalType": "uint256",
          "name": "",
          "type": "uint256"
        },
        {
          "internalType": "uint256",
          "name": "",
          "type": "uint256"
        }
      ],
      "name": "campaignContributors",
      "outputs": [
        {
          "internalType": "address",
          "name": "",
          "type": "address"
        }
      ],
      "stateMutability": "view",
      "type": "function"
    },
    {
      "inputs": [
        {
          "internalType": "uint256",
          "name": "",
          "type": "uint256"
        }
      ],
      "name": "campaigns",
      "outputs": [
        {
          "internalType": "address",
          "name": "creator",
          "type": "address"
        },
        {
          "internalType": "string",
          "name": "title",
          "type": "string"
        },
        {
          "internalType": "string",
          "name": "description",
          "type": "string"
        },
        {
          "internalType": "uint256",
          "name": "goal",
          "type": "uint256"
        },
        {
          "internalType": "uint256",
          "name": "deadline",
          "type": "uint256"
        },
        {
          "internalType": "uint256",
          "name": "amountRaised",
          "type": "uint256"
        },
        {
          "internalType": "string",
          "name": "imageHash",
          "type": "string"
        },
        {
          "internalType": "string",
          "name": "category",
          "type": "string"
        },
        {
          "internalType": "bool",
          "name": "goalReached",
          "type": "bool"
        },
        {
          "internalType": "bool",
          "name": "withdrawn",
          "type": "bool"
        },
        {
          "internalType": "enum CrowdfundingPlatform.CampaignStatus",
          "name": "status",
          "type": "uint8"
        }
      ],
      "stateMutability": "view",
      "type": "function"
    },
    {
      "inputs": [
        {
          "internalType": "uint256",
          "name": "_campaignId",
          "type": "uint256"
        }
      ],
      "name": "cancelCampaign",
      "outputs": [],
      "stateMutability": "nonpayable",
      "type": "function"
    },
    {
      "inputs": [
        {
          "internalType": "uint256",
          "name": "",
          "type": "uint256"
        }
      ],
      "name": "categories",
      "outputs": [
        {
          "internalType": "string",
          "name": "",
          "type": "string"
        }
      ],
      "stateMutability": "view",
      "type": "function"
    },
    {
      "inputs": [
        {
          "internalType": "uint256",
          "name": "_campaignId",
          "type": "uint256"
        }
      ],
      "name": "claimRefund",
      "outputs": [],
      "stateMutability": "nonpayable",
      "type": "function"
    },
    {
      "inputs": [
        {
          "internalType": "uint256",
          "name": "_campaignId",
          "type": "uint256"
        }
      ],
      "name": "contribute",
      "outputs": [],
      "stateMutability": "payable",
      "type": "function"
    },
    {
      "inputs": [
        {
          "internalType": "uint256",
          "name": "",
          "type": "uint256"
        },
        {
          "internalType": "address",
          "name": "",
          "type": "address"
        }
      ],
      "name": "contributions",
      "outputs": [
        {
          "internalType": "uint256",
          "name": "",
          "type": "uint256"
        }
      ],
      "stateMutability": "view",
      "type": "function"
    },
    {
      "inputs": [
        {
          "internalType": "string",
          "name": "_title",
          "type": "string"
        },
        {
          "internalType": "string",
          "name": "_description",
          "type": "string"
        },
        {
          "internalType": "uint256",
          "name": "_goal",
          "type": "uint256"
        },
        {
          "internalType": "uint256",
          "name": "_durationInDays",
          "type": "uint256"
        },
        {
          "internalType": "string",
          "name": "_imageHash",
          "type": "string"
        },
        {
          "internalType": "string",
          "name": "_category",
          "type": "string"
        }
      ],
      "name": "createCampaign",
      "outputs": [
        {
          "internalType": "uint256",
          "name": "",
          "type": "uint256"
        }
      ],
      "stateMutability": "payable",
      "type": "function"
    },
    {
      "inputs": [],
      "name": "getActiveCampaigns",
      "outputs": [
        {
          "components": [
            {
              "internalType": "address",
              "name": "creator",
              "type": "address"
            },
            {
              "internalType": "string",
              "name": "title",
              "type": "string"
            },
            {
              "internalType": "string",
              "name": "description",
              "type": "string"
            },
            {
              "internalType": "uint256",
              "name": "goal",
              "type": "uint256"
            },
            {
              "internalType": "uint256",
              "name": "deadline",
              "type": "uint256"
            },
            {
              "internalType": "uint256",
              "name": "amountRaised",
              "type": "uint256"
            },
            {
              "internalType": "string",
              "name": "imageHash",
              "type": "string"
            },
            {
              "internalType": "string",
              "name": "category",
              "type": "string"
            },
            {
              "internalType": "bool",
              "name": "goalReached",
              "type": "bool"
            },
            {
              "internalType": "bool",
              "name": "withdrawn",
              "type": "bool"
            },
            {
              "internalType": "enum CrowdfundingPlatform.CampaignStatus",
              "name": "status",
              "type": "uint8"
            }
          ],
          "internalType": "struct CrowdfundingPlatform.Campaign[]",
          "name": "",
          "type": "tuple[]"
        }
      ],
      "stateMutability": "view",
      "type": "function"
    },
    {
      "inputs": [
        {
          "internalType": "uint256",
          "name": "_campaignId",
          "type": "uint256"
        }
      ],
      "name": "getCampaign",
      "outputs": [
        {
          "components": [
            {
              "internalType": "address",
              "name": "creator",
              "type": "address"
            },
            {
              "internalType": "string",
              "name": "title",
              "type": "string"
            },
            {
              "internalType": "string",
              "name": "description",
              "type": "string"
            },
            {
              "internalType": "uint256",
              "name": "goal",
              "type": "uint256"
            },
            {
              "internalType": "uint256",
              "name": "deadline",
              "type": "uint256"
            },
            {
              "internalType": "uint256",
              "name": "amountRaised",
              "type": "uint256"
            },
            {
              "internalType": "string",
              "name": "imageHash",
              "type": "string"
            },
            {
              "internalType": "string",
              "name": "category",
              "type": "string"
            },
            {
              "internalType": "bool",
              "name": "goalReached",
              "type": "bool"
            },
            {
              "internalType": "bool",
              "name": "withdrawn",
              "type": "bool"
            },
            {
              "internalType": "enum CrowdfundingPlatform.CampaignStatus",
              "name": "status",
              "type": "uint8"
            }
          ],
          "internalType": "struct CrowdfundingPlatform.Campaign",
          "name": "",
          "type": "tuple"
        }
      ],
      "stateMutability": "view",
      "type": "function"
    },
    {
      "inputs": [],
      "name": "getCampaignCount",
      "outputs": [
        {
          "internalType": "uint256",
          "name": "",
          "type": "uint256"
        }
      ],
      "stateMutability": "view",
      "type": "function"
    },
    {
      "inputs": [],
      "name": "getCampaigns",
      "outputs": [
        {
          "components": [
            {
              "internalType": "address",
              "name": "creator",
              "type": "address"
            },
            {
              "internalType": "string",
              "name": "title",
              "type": "string"
            },
            {
              "internalType": "string",
              "name": "description",
              "type": "string"
            },
            {
              "internalType": "uint256",
              "name": "goal",
              "type": "uint256"
            },
            {
              "internalType": "uint256",
              "name": "deadline",
              "type": "uint256"
            },
            {
              "internalType": "uint256",
              "name": "amountRaised",
              "type": "uint256"
            },
            {
              "internalType": "string",
              "name": "imageHash",
              "type": "string"
            },
            {
              "internalType": "string",
              "name": "category",
              "type": "string"
            },
            {
              "internalType": "bool",
              "name": "goalReached",
              "type": "bool"
            },
            {
              "internalType": "bool",
              "name": "withdrawn",
              "type": "bool"
            },
            {
              "internalType": "enum CrowdfundingPlatform.CampaignStatus",
              "name": "status",
              "type": "uint8"
            }
          ],
          "internalType": "struct CrowdfundingPlatform.Campaign[]",
          "name": "",
          "type": "tuple[]"
        }
      ],
      "stateMutability": "view",
      "type": "function"
    },
    {
      "inputs": [],
      "name": "getCategories",
      "outputs": [
        {
          "internalType": "string[]",
          "name": "",
          "type": "string[]"
        }
      ],
      "stateMutability": "view",
      "type": "function"
    },
    {
      "inputs": [
        {
          "internalType": "uint256",
          "name": "_campaignId",
          "type": "uint256"
        },
        {
          "internalType": "address",
          "name": "_contributor",
          "type": "address"
        }
      ],
      "name": "getContribution",
      "outputs": [
        {
          "internalType": "uint256",
          "name": "",
          "type": "uint256"
        }
      ],
      "stateMutability": "view",
      "type": "function"
    },
    {
      "inputs": [
        {
          "internalType": "uint256",
          "name": "_campaignId",
          "type": "uint256"
        }
      ],
      "name": "getContributors",
      "outputs": [
        {
          "internalType": "address[]",
          "name": "",
          "type": "address[]"
        }
      ],
      "stateMutability": "view",
      "type": "function"
    },
    {
      "inputs": [],
      "name": "platformFee",
      "outputs": [
        {
          "internalType": "uint256",
          "name": "",
          "type": "uint256"
        }
      ],
      "stateMutability": "view",
      "type": "function"
    },
    {
      "inputs": [],
      "name": "platformOwner",
      "outputs": [
        {
          "internalType": "address",
          "name": "",
          "type": "address"
        }
      ],
      "stateMutability": "view",
      "type": "function"
    },
    {
      "inputs": [
        {
          "internalType": "uint256",
          "name": "_newFee",
          "type": "uint256"
        }
      ],
      "name": "setPlatformFee",
      "outputs": [],
      "stateMutability": "nonpayable",
      "type": "function"
    },
    {
      "inputs": [
        {
          "internalType": "address",
          "name": "_newOwner",
          "type": "address"
        }
      ],
      "name": "transferOwnership",
      "outputs": [],
      "stateMutability": "nonpayable",
      "type": "function"
    },
    {
      "inputs": [
        {
          "internalType": "uint256",
          "name": "_campaignId",
          "type": "uint256"
        }
      ],
      "name": "withdrawFunds",
      "outputs": [],
      "stateMutability": "nonpayable",
      "type": "function"
    }
  ],
  "bytecode": "0x60806040523480156200001157600080fd5b506040516200368c3803806200368c83398101604081905262000034916200027e565b60016000556103e8811115620000905760405162461bcd60e51b815260206004820152601960248201527f4665652065786365656473206d6178696d756d206c696d697400000000000000604482015260640160405180910390fd5b600580546001600160a01b0319163317905560068190556007805460018101825560009190915260408051808201909152600a815269546563686e6f6c6f677960b01b60208201526000805160206200366c83398151915290910190620000f890826200033d565b5060078054600181018255600091909152604080518082019091526003815262105c9d60ea1b60208201526000805160206200366c833981519152909101906200014390826200033d565b5060078054600181018255600091909152604080518082019091526009815268436f6d6d756e69747960b81b60208201526000805160206200366c833981519152909101906200019490826200033d565b5060078054600181018255600082905260408051808201909152918252664368617269747960c81b60208301526000805160206200366c8339815191520190620001df90826200033d565b5060078054600181018255600082905260408051808201909152918252662330b9b434b7b760c91b60208301526000805160206200366c83398151915201906200022a90826200033d565b506007805460018101825560009190915260408051808201909152600481526346696c6d60e01b60208201526000805160206200366c833981519152909101906200027690826200033d565b505062000409565b6000602082840312156200029157600080fd5b5051919050565b634e487b7160e01b600052604160045260246000fd5b600181811c90821680620002c357607f821691505b602082108103620002e457634e487b7160e01b600052602260045260246000fd5b50919050565b601f8211156200033857600081815260208120601f850160051c81016020861015620003135750805b601f850160051c820191505b8181101562000334578281556001016200031f565b5050505b505050565b81516001600160401b0381111562000359576200035962000298565b62000371816200036a8454620002ae565b84620002ea565b602080601f831160018114620003a95760008415620003905750858301515b600019600386901b1c1916600185901b17855562000334565b600085815260208120601f198616915b82811015620003da57888601518255948401946001909101908401620003b9565b5085821015620003f95787850151600019600388901b60f8161c191681555b5050505050600190811b01905550565b61325380620004196000396000f3fe6080604052600436106101355760003560e01c80635b7baf64116100ab578063c1cbbca71161006f578063c1cbbca71461038c578063c362b1561461039f578063c6cdbe5e146103b4578063e081dbf9146103e1578063f2fde38b14610401578063ff96de211461042157600080fd5b80635b7baf641461030c5780636caa92181461032c5780639f752cdd14610341578063a6b0363314610354578063bc063e1a1461037657600080fd5b80633c1ab00f116100fd5780633c1ab00f146102005780633d891f591461022d57806345598b4a146102655780634db0412c146102855780634df8ccb1146102a75780635598f8cc146102df57600080fd5b806312e8e2c31461013a578063141961bc1461015c578063155dd5ee1461019c57806326232a2e146101bc5780632e0dcbf7146101e0575b600080fd5b34801561014657600080fd5b5061015a61015536600461286f565b610441565b005b34801561016857600080fd5b5061017c61017736600461286f565b610501565b6040516101939b9a99989796959493929190612906565b60405180910390f35b3480156101a857600080fd5b5061015a6101b736600461286f565b610788565b3480156101c857600080fd5b506101d260065481565b604051908152602001610193565b3480156101ec57600080fd5b5061015a6101fb3660046129ac565b610bdb565b34801561020c57600080fd5b5061022061021b36600461286f565b610d84565b6040516101939190612a1e565b34801561023957600080fd5b506101d2610248366004612a87565b600460209081526000928352604080842090915290825290205481565b34801561027157600080fd5b5061015a61028036600461286f565b610e14565b34801561029157600080fd5b5061029a610fdb565b6040516101939190612ab3565b3480156102b357600080fd5b506005546102c7906001600160a01b031681565b6040516001600160a01b039091168152602001610193565b3480156102eb57600080fd5b506102ff6102fa36600461286f565b6110b4565b6040516101939190612bed565b34801561031857600080fd5b5061015a61032736600461286f565b6113c9565b34801561033857600080fd5b506001546101d2565b6101d261034f366004612caa565b611709565b34801561036057600080fd5b50610369611ba9565b6040516101939190612d69565b34801561038257600080fd5b506101d26103e881565b61015a61039a36600461286f565b611f26565b3480156103ab57600080fd5b50610369612179565b3480156103c057600080fd5b506103d46103cf36600461286f565b6125d9565b6040516101939190612dbe565b3480156103ed57600080fd5b506101d26103fc366004612a87565b612685565b34801561040d57600080fd5b5061015a61041c366004612dd1565b6126d3565b34801561042d57600080fd5b506102c761043c366004612dec565b612767565b6005546001600160a01b031633146104745760405162461bcd60e51b815260040161046b90612e0e565b60405180910390fd5b6103e88111156104c65760405162461bcd60e51b815260206004820152601960248201527f4665652065786365656473206d6178696d756d206c696d697400000000000000604482015260640161046b565b60068190556040518181527f72b05fd7e6e407beabebd17ae121166880efdc19a2a9b08063eafc0c001e470a9060200160405180910390a150565b600260205260009081526040902080546001820180546001600160a01b03909216929161052d90612e3a565b80601f016020809104026020016040519081016040528092919081815260200182805461055990612e3a565b80156105a65780601f1061057b576101008083540402835291602001916105a6565b820191906000526020600020905b81548152906001019060200180831161058957829003601f168201915b5050505050908060020180546105bb90612e3a565b80601f01602080910402602001604051908101604052809291908181526020018280546105e790612e3a565b80156106345780601f1061060957610100808354040283529160200191610634565b820191906000526020600020905b81548152906001019060200180831161061757829003601f168201915b50505050509080600301549080600401549080600501549080600601805461065b90612e3a565b80601f016020809104026020016040519081016040528092919081815260200182805461068790612e3a565b80156106d45780601f106106a9576101008083540402835291602001916106d4565b820191906000526020600020905b8154815290600101906020018083116106b757829003601f168201915b5050505050908060070180546106e990612e3a565b80601f016020809104026020016040519081016040528092919081815260200182805461071590612e3a565b80156107625780601f1061073757610100808354040283529160200191610762565b820191906000526020600020905b81548152906001019060200180831161074557829003601f168201915b5050506008909301549192505060ff80821691610100810482169162010000909104168b565b60008181526002602052604090205481906001600160a01b031633146107e75760405162461bcd60e51b81526020600482015260146024820152732737ba1031b0b6b830b4b3b71031b932b0ba37b960611b604482015260640161046b565b8160015481106108095760405162461bcd60e51b815260040161046b90612e6e565b6000838152600260205260409020600401548390421015806108565750600360008281526002602052604090206008015462010000900460ff166003811115610854576108546128ce565b145b6108995760405162461bcd60e51b8152602060048201526014602482015273111958591b1a5b99481b9bdd081c995858da195960621b604482015260640161046b565b6108a161279f565b60008481526002602052604090206003810154600582015410156108f65760405162461bcd60e51b815260206004820152600c60248201526b11dbd85b081b9bdd081b595d60a21b604482015260640161046b565b6008810154610100900460ff16156109505760405162461bcd60e51b815260206004820152601760248201527f46756e647320616c72656164792077697468647261776e000000000000000000604482015260640161046b565b6003600882015462010000900460ff166003811115610971576109716128ce565b036109b75760405162461bcd60e51b815260206004820152601660248201527510d85b5c185a59db881dd85cc818d85b98d95b1b195960521b604482015260640161046b565b60088101805462ffff001916620101001790556005810154600654600090612710906109e39084612ebb565b6109ed9190612ed8565b905060006109fb8284612efa565b90508115610aa8576005546040516000916001600160a01b03169084908381818185875af1925050503d8060008114610a50576040519150601f19603f3d011682016040523d82523d6000602084013e610a55565b606091505b5050905080610aa65760405162461bcd60e51b815260206004820152601c60248201527f506c6174666f726d20666565207472616e73666572206661696c656400000000604482015260640161046b565b505b83546040516000916001600160a01b03169083908381818185875af1925050503d8060008114610af4576040519150601f19603f3d011682016040523d82523d6000602084013e610af9565b606091505b5050905080610b4a5760405162461bcd60e51b815260206004820152601c60248201527f43726561746f722066756e64207472616e73666572206661696c656400000000604482015260640161046b565b84546040518381526001600160a01b03909116908a907ff440aec6b52895984d061d622e6edeba6210f7c3e059be920663140c084560d79060200160405180910390a3887f7e5e6bfcab605d9254dbb5c3b4c8bd65ee4705bb30b1fc434d9651d24d368f366001604051610bbe9190612f0d565b60405180910390a25050505050610bd56001600055565b50505050565b6005546001600160a01b03163314610c055760405162461bcd60e51b815260040161046b90612e0e565b80610c525760405162461bcd60e51b815260206004820152601860248201527f43617465676f72792063616e6e6f7420626520656d7074790000000000000000604482015260640161046b565b60005b600754811015610d08578282604051610c6f929190612f1b565b604051809103902060078281548110610c8a57610c8a612f2b565b90600052602060002001604051610ca19190612f41565b604051809103902003610cf65760405162461bcd60e51b815260206004820152601760248201527f43617465676f727920616c726561647920657869737473000000000000000000604482015260640161046b565b80610d0081612fb7565b915050610c55565b50600780546001810182556000919091527fa66cc928b5edb82af9bd49922954155ab7b0942694bea4ce44661d9a8736c68801610d4682848361301e565b507fdb74f4d32b97da9b3b9b907aa3fd5df938c018e13fe235d9883d0a0836c6bddb8282604051610d789291906130df565b60405180910390a15050565b6060816001548110610da85760405162461bcd60e51b815260040161046b90612e6e565b60008381526003602090815260409182902080548351818402810184019094528084529091830182828015610e0657602002820191906000526020600020905b81546001600160a01b03168152600190910190602001808311610de8575b505050505091505b50919050565b60008181526002602052604090205481906001600160a01b03163314610e735760405162461bcd60e51b81526020600482015260146024820152732737ba1031b0b6b830b4b3b71031b932b0ba37b960611b604482015260640161046b565b816001548110610e955760405162461bcd60e51b815260040161046b90612e6e565b60008381526002602052604090206004015483904210610ee95760405162461bcd60e51b815260206004820152600f60248201526e111958591b1a5b99481c185cdcd959608a1b604482015260640161046b565b600084815260026020526040812090600882015462010000900460ff166003811115610f1757610f176128ce565b14610f5d5760405162461bcd60e51b815260206004820152601660248201527543616d706169676e206973206e6f742061637469766560501b604482015260640161046b565b60088101805462ff000019166203000017905560405185907f403b6718db13878ac16c27decb08f09d3a10f116c7c25af575ff5bfbc11ae9e690600090a2847f7e5e6bfcab605d9254dbb5c3b4c8bd65ee4705bb30b1fc434d9651d24d368f366003604051610fcc9190612f0d565b60405180910390a25050505050565b60606007805480602002602001604051908101604052809291908181526020016000905b828210156110ab57838290600052602060002001805461101e90612e3a565b80601f016020809104026020016040519081016040528092919081815260200182805461104a90612e3a565b80156110975780601f1061106c57610100808354040283529160200191611097565b820191906000526020600020905b81548152906001019060200180831161107a57829003601f168201915b505050505081526020019060010190610fff565b50505050905090565b6110bc6127f8565b8160015481106110de5760405162461bcd60e51b815260040161046b90612e6e565b6000838152600260209081526040918290208251610160810190935280546001600160a01b03168352600181018054919284019161111b90612e3a565b80601f016020809104026020016040519081016040528092919081815260200182805461114790612e3a565b80156111945780601f1061116957610100808354040283529160200191611194565b820191906000526020600020905b81548152906001019060200180831161117757829003601f168201915b505050505081526020016002820180546111ad90612e3a565b80601f01602080910402602001604051908101604052809291908181526020018280546111d990612e3a565b80156112265780601f106111fb57610100808354040283529160200191611226565b820191906000526020600020905b81548152906001019060200180831161120957829003601f168201915b5050505050815260200160038201548152602001600482015481526020016005820154815260200160068201805461125d90612e3a565b80601f016020809104026020016040519081016040528092919081815260200182805461128990612e3a565b80156112d65780601f106112ab576101008083540402835291602001916112d6565b820191906000526020600020905b8154815290600101906020018083116112b957829003601f168201915b505050505081526020016007820180546112ef90612e3a565b80601f016020809104026020016040519081016040528092919081815260200182805461131b90612e3a565b80156113685780601f1061133d57610100808354040283529160200191611368565b820191906000526020600020905b81548152906001019060200180831161134b57829003601f168201915b5050509183525050600882015460ff808216151560208401526101008204811615156040840152606090920191620100009091041660038111156113ae576113ae6128ce565b60038111156113bf576113bf6128ce565b9052509392505050565b8060015481106113eb5760405162461bcd60e51b815260040161046b90612e6e565b6000828152600260205260409020600401548290421015806114385750600360008281526002602052604090206008015462010000900460ff166003811115611436576114366128ce565b145b61147b5760405162461bcd60e51b8152602060048201526014602482015273111958591b1a5b99481b9bdd081c995858da195960621b604482015260640161046b565b61148361279f565b6000838152600260205260408120600481015490919042108015906114af575081600301548260050154105b905060006003600884015462010000900460ff1660038111156114d4576114d46128ce565b14905081806114e05750805b61152c5760405162461bcd60e51b815260206004820181905260248201527f43616d706169676e206973207375636365737366756c206f7220616374697665604482015260640161046b565b6000868152600460209081526040808320338452909152902054806115935760405162461bcd60e51b815260206004820152601a60248201527f4e6f20636f6e747269627574696f6e7320746f20726566756e64000000000000604482015260640161046b565b60008781526004602090815260408083203384529091528120819055600885015462010000900460ff1660038111156115ce576115ce6128ce565b1480156115d9575081155b1561162d5760088401805462ff000019166202000017905560405187907f7e5e6bfcab605d9254dbb5c3b4c8bd65ee4705bb30b1fc434d9651d24d368f369061162490600290612f0d565b60405180910390a25b604051600090339083908381818185875af1925050503d806000811461166f576040519150601f19603f3d011682016040523d82523d6000602084013e611674565b606091505b50509050806116be5760405162461bcd60e51b81526020600482015260166024820152751499599d5b99081d1c985b9cd9995c8819985a5b195960521b604482015260640161046b565b604051828152339089907ff3f402280ef0a7905e124aa621b65eaeb2725c343e8b36d398ed78c29daf285c9060200160405180910390a350505050506117046001600055565b505050565b6000808751116117535760405162461bcd60e51b81526020600482015260156024820152745469746c652063616e6e6f7420626520656d70747960581b604482015260640161046b565b60008651116117a45760405162461bcd60e51b815260206004820152601b60248201527f4465736372697074696f6e2063616e6e6f7420626520656d7074790000000000604482015260640161046b565b600085116117f45760405162461bcd60e51b815260206004820152601b60248201527f476f616c206d7573742062652067726561746572207468616e20300000000000604482015260640161046b565b600084116118445760405162461bcd60e51b815260206004820152601f60248201527f4475726174696f6e206d7573742062652067726561746572207468616e203000604482015260640161046b565b6000805b6007548110156118ac5783805190602001206007828154811061186d5761186d612f2b565b906000526020600020016040516118849190612f41565b60405180910390200361189a57600191506118ac565b806118a481612fb7565b915050611848565b50806118fa5760405162461bcd60e51b815260206004820152601960248201527f496e76616c69642063616d706169676e2063617465676f727900000000000000604482015260640161046b565b600154600061190c8762015180612ebb565b611916904261310e565b9050604051806101600160405280336001600160a01b031681526020018b81526020018a81526020018981526020018281526020016000815260200187815260200186815260200160001515815260200160001515815260200160006003811115611983576119836128ce565b90526000838152600260209081526040909120825181546001600160a01b0319166001600160a01b039091161781559082015160018201906119c59082613121565b50604082015160028201906119da9082613121565b50606082015160038201556080820151600482015560a0820151600582015560c08201516006820190611a0d9082613121565b5060e08201516007820190611a229082613121565b506101008281015160088301805461012086015161ffff1990911692151561ff0019169290921791151590920217808255610140840151919062ff0000191662010000836003811115611a7757611a776128ce565b0217905550506001805491506000611a8e83612fb7565b9190505550336001600160a01b0316827ff9bef86f202a8a7ac47c00e895ac2c191749da86fd955af550e31f9a52207bdb8c8b858a604051611ad394939291906131e1565b60405180910390a33415611b9c57600082815260026020908152604080832034600590910181905560048352818420338086529084528285208290558685526003845291842080546001810182559085529290932090910180546001600160a01b03191690911790558811611b5f576000828152600260205260409020600801805460ff191660011790555b60408051348082526020820152339184917ff9b7589b7a8d939b9da5dae90770378fe5fd7802be5d66432e85bedbdbfbcb7a910160405180910390a35b5098975050505050505050565b6060600060015467ffffffffffffffff811115611bc857611bc8612c07565b604051908082528060200260200182016040528015611c0157816020015b611bee6127f8565b815260200190600190039081611be65790505b50905060005b600154811015610e0e576000818152600260209081526040918290208251610160810190935280546001600160a01b031683526001810180549192840191611c4e90612e3a565b80601f0160208091040260200160405190810160405280929190818152602001828054611c7a90612e3a565b8015611cc75780601f10611c9c57610100808354040283529160200191611cc7565b820191906000526020600020905b815481529060010190602001808311611caa57829003601f168201915b50505050508152602001600282018054611ce090612e3a565b80601f0160208091040260200160405190810160405280929190818152602001828054611d0c90612e3a565b8015611d595780601f10611d2e57610100808354040283529160200191611d59565b820191906000526020600020905b815481529060010190602001808311611d3c57829003601f168201915b50505050508152602001600382015481526020016004820154815260200160058201548152602001600682018054611d9090612e3a565b80601f0160208091040260200160405190810160405280929190818152602001828054611dbc90612e3a565b8015611e095780601f10611dde57610100808354040283529160200191611e09565b820191906000526020600020905b815481529060010190602001808311611dec57829003601f168201915b50505050508152602001600782018054611e2290612e3a565b80601f0160208091040260200160405190810160405280929190818152602001828054611e4e90612e3a565b8015611e9b5780601f10611e7057610100808354040283529160200191611e9b565b820191906000526020600020905b815481529060010190602001808311611e7e57829003601f168201915b5050509183525050600882015460ff80821615156020840152610100820481161515604084015260609092019162010000909104166003811115611ee157611ee16128ce565b6003811115611ef257611ef26128ce565b81525050828281518110611f0857611f08612f2b565b60200260200101819052508080611f1e90612fb7565b915050611c07565b806001548110611f485760405162461bcd60e51b815260040161046b90612e6e565b60008281526002602052604090206004015482904210611f9c5760405162461bcd60e51b815260206004820152600f60248201526e111958591b1a5b99481c185cdcd959608a1b604482015260640161046b565b611fa461279f565b600083815260026020526040812090600882015462010000900460ff166003811115611fd257611fd26128ce565b146120185760405162461bcd60e51b815260206004820152601660248201527543616d706169676e206973206e6f742061637469766560501b604482015260640161046b565b600034116120745760405162461bcd60e51b815260206004820152602360248201527f436f6e747269627574696f6e206d75737420626520677265617465722074686160448201526206e20360ec1b606482015260840161046b565b600084815260046020908152604080832033845290915281205490036120c35760008481526003602090815260408220805460018101825590835291200180546001600160a01b031916331790555b6000848152600460209081526040808320338452909152812080543492906120ec90849061310e565b9250508190555034816005016000828254612107919061310e565b9091555050600381015460058201541061212b5760088101805460ff191660011790555b6005810154604080513481526020810192909252339186917ff9b7589b7a8d939b9da5dae90770378fe5fd7802be5d66432e85bedbdbfbcb7a910160405180910390a3506117046001600055565b60606000805b6001548110156121f8576000808281526002602052604090206008015462010000900460ff1660038111156121b6576121b66128ce565b1480156121d3575060008181526002602052604090206004015442105b156121e657816121e281612fb7565b9250505b806121f081612fb7565b91505061217f565b5060008167ffffffffffffffff81111561221457612214612c07565b60405190808252806020026020018201604052801561224d57816020015b61223a6127f8565b8152602001906001900390816122325790505b5090506000805b6001548110156125d0576000808281526002602052604090206008015462010000900460ff16600381111561228b5761228b6128ce565b1480156122a8575060008181526002602052604090206004015442105b156125be576000818152600260209081526040918290208251610160810190935280546001600160a01b0316835260018101805491928401916122ea90612e3a565b80601f016020809104026020016040519081016040528092919081815260200182805461231690612e3a565b80156123635780601f1061233857610100808354040283529160200191612363565b820191906000526020600020905b81548152906001019060200180831161234657829003601f168201915b5050505050815260200160028201805461237c90612e3a565b80601f01602080910402602001604051908101604052809291908181526020018280546123a890612e3a565b80156123f55780601f106123ca576101008083540402835291602001916123f5565b820191906000526020600020905b8154815290600101906020018083116123d857829003601f168201915b5050505050815260200160038201548152602001600482015481526020016005820154815260200160068201805461242c90612e3a565b80601f016020809104026020016040519081016040528092919081815260200182805461245890612e3a565b80156124a55780601f1061247a576101008083540402835291602001916124a5565b820191906000526020600020905b81548152906001019060200180831161248857829003601f168201915b505050505081526020016007820180546124be90612e3a565b80601f01602080910402602001604051908101604052809291908181526020018280546124ea90612e3a565b80156125375780601f1061250c57610100808354040283529160200191612537565b820191906000526020600020905b81548152906001019060200180831161251a57829003601f168201915b5050509183525050600882015460ff8082161515602084015261010082048116151560408401526060909201916201000090910416600381111561257d5761257d6128ce565b600381111561258e5761258e6128ce565b815250508383815181106125a4576125a4612f2b565b602002602001018190525081806125ba90612fb7565b9250505b806125c881612fb7565b915050612254565b50909392505050565b600781815481106125e957600080fd5b90600052602060002001600091509050805461260490612e3a565b80601f016020809104026020016040519081016040528092919081815260200182805461263090612e3a565b801561267d5780601f106126525761010080835404028352916020019161267d565b820191906000526020600020905b81548152906001019060200180831161266057829003601f168201915b505050505081565b60008260015481106126a95760405162461bcd60e51b815260040161046b90612e6e565b505060009182526004602090815260408084206001600160a01b0393909316845291905290205490565b6005546001600160a01b031633146126fd5760405162461bcd60e51b815260040161046b90612e0e565b6001600160a01b0381166127455760405162461bcd60e51b815260206004820152600f60248201526e496e76616c6964206164647265737360881b604482015260640161046b565b600580546001600160a01b0319166001600160a01b0392909216919091179055565b6003602052816000526040600020818154811061278357600080fd5b6000918252602090912001546001600160a01b03169150829050565b6002600054036127f15760405162461bcd60e51b815260206004820152601f60248201527f5265656e7472616e637947756172643a207265656e7472616e742063616c6c00604482015260640161046b565b6002600055565b60405180610160016040528060006001600160a01b03168152602001606081526020016060815260200160008152602001600081526020016000815260200160608152602001606081526020016000151581526020016000151581526020016000600381111561286a5761286a6128ce565b905290565b60006020828403121561288157600080fd5b5035919050565b6000815180845260005b818110156128ae57602081850181015186830182015201612892565b506000602082860101526020601f19601f83011685010191505092915050565b634e487b7160e01b600052602160045260246000fd5b6004811061290257634e487b7160e01b600052602160045260246000fd5b9052565b6001600160a01b038c1681526101606020820181905260009061292b8382018e612888565b9050828103604084015261293f818d612888565b90508a60608401528960808401528860a084015282810360c08401526129658189612888565b905082810360e08401526129798188612888565b91505084151561010083015283151561012083015261299c6101408301846128e4565b9c9b505050505050505050505050565b600080602083850312156129bf57600080fd5b823567ffffffffffffffff808211156129d757600080fd5b818501915085601f8301126129eb57600080fd5b8135818111156129fa57600080fd5b866020828501011115612a0c57600080fd5b60209290920196919550909350505050565b6020808252825182820181905260009190848201906040850190845b81811015612a5f5783516001600160a01b031683529284019291840191600101612a3a565b50909695505050505050565b80356001600160a01b0381168114612a8257600080fd5b919050565b60008060408385031215612a9a57600080fd5b82359150612aaa60208401612a6b565b90509250929050565b6000602080830181845280855180835260408601915060408160051b870101925083870160005b82811015612b0857603f19888603018452612af6858351612888565b94509285019290850190600101612ada565b5092979650505050505050565b80516001600160a01b0316825260006101606020830151816020860152612b3e82860182612888565b91505060408301518482036040860152612b588282612888565b915050606083015160608501526080830151608085015260a083015160a085015260c083015184820360c0860152612b908282612888565b91505060e083015184820360e0860152612baa8282612888565b91505061010080840151612bc18287018215159052565b50506101208381015115159085015261014080840151612be3828701826128e4565b5090949350505050565b602081526000612c006020830184612b15565b9392505050565b634e487b7160e01b600052604160045260246000fd5b600082601f830112612c2e57600080fd5b813567ffffffffffffffff80821115612c4957612c49612c07565b604051601f8301601f19908116603f01168101908282118183101715612c7157612c71612c07565b81604052838152866020858801011115612c8a57600080fd5b836020870160208301376000602085830101528094505050505092915050565b60008060008060008060c08789031215612cc357600080fd5b863567ffffffffffffffff80821115612cdb57600080fd5b612ce78a838b01612c1d565b97506020890135915080821115612cfd57600080fd5b612d098a838b01612c1d565b965060408901359550606089013594506080890135915080821115612d2d57600080fd5b612d398a838b01612c1d565b935060a0890135915080821115612d4f57600080fd5b50612d5c89828a01612c1d565b9150509295509295509295565b6000602080830181845280855180835260408601915060408160051b870101925083870160005b82811015612b0857603f19888603018452612dac858351612b15565b94509285019290850190600101612d90565b602081526000612c006020830184612888565b600060208284031215612de357600080fd5b612c0082612a6b565b60008060408385031215612dff57600080fd5b50508035926020909101359150565b6020808252601290820152712737ba10383630ba3337b9369037bbb732b960711b604082015260600190565b600181811c90821680612e4e57607f821691505b602082108103610e0e57634e487b7160e01b600052602260045260246000fd5b60208082526017908201527f43616d706169676e20646f6573206e6f74206578697374000000000000000000604082015260600190565b634e487b7160e01b600052601160045260246000fd5b8082028115828204841417612ed257612ed2612ea5565b92915050565b600082612ef557634e487b7160e01b600052601260045260246000fd5b500490565b81810381811115612ed257612ed2612ea5565b60208101612ed282846128e4565b8183823760009101908152919050565b634e487b7160e01b600052603260045260246000fd5b6000808354612f4f81612e3a565b60018281168015612f675760018114612f7c57612fab565b60ff1984168752821515830287019450612fab565b8760005260208060002060005b85811015612fa25781548a820152908401908201612f89565b50505082870194505b50929695505050505050565b600060018201612fc957612fc9612ea5565b5060010190565b601f82111561170457600081815260208120601f850160051c81016020861015612ff75750805b601f850160051c820191505b8181101561301657828155600101613003565b505050505050565b67ffffffffffffffff83111561303657613036612c07565b61304a836130448354612e3a565b83612fd0565b6000601f84116001811461307e57600085156130665750838201355b600019600387901b1c1916600186901b1783556130d8565b600083815260209020601f19861690835b828110156130af578685013582556020948501946001909201910161308f565b50868210156130cc5760001960f88860031b161c19848701351681555b505060018560011b0183555b5050505050565b60208152816020820152818360408301376000818301604090810191909152601f909201601f19160101919050565b80820180821115612ed257612ed2612ea5565b815167ffffffffffffffff81111561313b5761313b612c07565b61314f816131498454612e3a565b84612fd0565b602080601f831160018114613184576000841561316c5750858301515b600019600386901b1c1916600185901b178555613016565b600085815260208120601f198616915b828110156131b357888601518255948401946001909101908401613194565b50858210156131d15787850151600019600388901b60f8161c191681555b5050505050600190811b01905550565b6080815260006131f46080830187612888565b85602084015284604084015282810360608401526132128185612888565b97965050505050505056fea2646970667358221220f3f4cfd4178d66bbc4014dd3d76e15d073de61c7d66faa8cc1252519c82fc7ee64736f6c63430008130033a66cc928b5edb82af9bd49922954155ab7b0942694bea4ce44661d9a8736c688",
  "linkReferences": {},
  "deployedLinkReferences": {}
}