{
  "_format": "hh-sol-artifact-1",
  "contractName": "CrowdfundingPlatform",
  "sourceName": "contracts/CrowdfundingPlatform.sol",
  "abi": [
    {
      "inputs": [
        {
          "internalType": "uint256",
          "name": "_platformFee",
          "type": "uint256"
        }
      ],
      "stateMutability": "nonpayable",
      "type": "constructor"
    },
    {
      "anonymous": false,
      "inputs": [
        {
          "indexed": true,
          "internalType": "uint256",
          "name": "campaignId",
          "type": "uint256"
        }
      ],
      "name": "CampaignCancelled",
      "type": "event"
    },
    {
      "anonymous": false,
      "inputs": [
        {
          "indexed": true,
          "internalType": "uint256",
          "name": "campaignId",
          "type": "uint256"
        },
        {
          "indexed": true,
          "internalType": "address",
          "name": "creator",
          "type": "address"
        },
        {
          "indexed": false,
          "internalType": "string",
          "name": "title",
          "type": "string"
        },
        {
          "indexed": false,
          "internalType": "uint256",
          "name": "goal",
          "type": "uint256"
        },
        {
          "indexed": false,
          "internalType": "uint256",
          "name": "deadline",
          "type": "uint256"
        },
        {
          "indexed": false,
          "internalType": "string",
          "name": "category",
          "type": "string"
        }
      ],
      "name": "CampaignCreated",
      "type": "event"
    },
    {
      "anonymous": false,
      "inputs": [
        {
          "indexed": true,
          "internalType": "uint256",
          "name": "campaignId",
          "type": "uint256"
        },
        {
          "indexed": false,
          "internalType": "enum CrowdfundingPlatform.CampaignStatus",
          "name": "status",
          "type": "uint8"
        }
      ],
      "name": "CampaignStatusChanged",
      "type": "event"
    },
    {
      "anonymous": false,
      "inputs": [
        {
          "indexed": true,
          "internalType": "uint256",
          "name": "campaignId",
          "type": "uint256"
        },
        {
          "indexed": false,
          "internalType": "string",
          "name": "newTitle",
          "type": "string"
        },
        {
          "indexed": false,
          "internalType": "string",
          "name": "newDescription",
          "type": "string"
        },
        {
          "indexed": false,
          "internalType": "string",
          "name": "newImageHash",
          "type": "string"
        }
      ],
      "name": "CampaignUpdated",
      "type": "event"
    },
    {
      "anonymous": false,
      "inputs": [
        {
          "indexed": false,
          "internalType": "string",
          "name": "category",
          "type": "string"
        }
      ],
      "name": "CategoryAdded",
      "type": "event"
    },
    {
      "anonymous": false,
      "inputs": [
        {
          "indexed": true,
          "internalType": "uint256",
          "name": "campaignId",
          "type": "uint256"
        },
        {
          "indexed": true,
          "internalType": "address",
          "name": "contributor",
          "type": "address"
        },
        {
          "indexed": false,
          "internalType": "uint256",
          "name": "amount",
          "type": "uint256"
        },
        {
          "indexed": false,
          "internalType": "uint256",
          "name": "totalRaised",
          "type": "uint256"
        }
      ],
      "name": "ContributionMade",
      "type": "event"
    },
    {
      "anonymous": false,
      "inputs": [
        {
          "indexed": true,
          "internalType": "uint256",
          "name": "campaignId",
          "type": "uint256"
        },
        {
          "indexed": true,
          "internalType": "address",
          "name": "creator",
          "type": "address"
        },
        {
          "indexed": false,
          "internalType": "uint256",
          "name": "amount",
          "type": "uint256"
        }
      ],
      "name": "FundsWithdrawn",
      "type": "event"
    },
    {
      "anonymous": false,
      "inputs": [
        {
          "indexed": false,
          "internalType": "address",
          "name": "account",
          "type": "address"
        }
      ],
      "name": "Paused",
      "type": "event"
    },
    {
      "anonymous": false,
      "inputs": [
        {
          "indexed": false,
          "internalType": "uint256",
          "name": "newFee",
          "type": "uint256"
        }
      ],
      "name": "PlatformFeeChanged",
      "type": "event"
    },
    {
      "anonymous": false,
      "inputs": [
        {
          "indexed": true,
          "internalType": "uint256",
          "name": "campaignId",
          "type": "uint256"
        },
        {
          "indexed": true,
          "internalType": "address",
          "name": "contributor",
          "type": "address"
        },
        {
          "indexed": false,
          "internalType": "uint256",
          "name": "amount",
          "type": "uint256"
        }
      ],
      "name": "RefundClaimed",
      "type": "event"
    },
    {
      "anonymous": false,
      "inputs": [
        {
          "indexed": false,
          "internalType": "address",
          "name": "account",
          "type": "address"
        }
      ],
      "name": "Unpaused",
      "type": "event"
    },
    {
      "inputs": [],
      "name": "MAX_FEE",
      "outputs": [
        {
          "internalType": "uint256",
          "name": "",
          "type": "uint256"
        }
      ],
      "stateMutability": "view",
      "type": "function"
    },
    {
      "inputs": [
        {
          "internalType": "string",
          "name": "_category",
          "type": "string"
        }
      ],
      "name": "addCategory",
      "outputs": [],
      "stateMutability": "nonpayable",
      "type": "function"
    },
    {
      "inputs": [
        {
          "internalType": "uint256",
          "name": "",
          "type": "uint256"
        },
        {
          "internalType": "uint256",
          "name": "",
          "type": "uint256"
        }
      ],
      "name": "campaignContributors",
      "outputs": [
        {
          "internalType": "address",
          "name": "",
          "type": "address"
        }
      ],
      "stateMutability": "view",
      "type": "function"
    },
    {
      "inputs": [
        {
          "internalType": "uint256",
          "name": "",
          "type": "uint256"
        }
      ],
      "name": "campaigns",
      "outputs": [
        {
          "internalType": "address",
          "name": "creator",
          "type": "address"
        },
        {
          "internalType": "string",
          "name": "title",
          "type": "string"
        },
        {
          "internalType": "string",
          "name": "description",
          "type": "string"
        },
        {
          "internalType": "uint256",
          "name": "goal",
          "type": "uint256"
        },
        {
          "internalType": "uint256",
          "name": "deadline",
          "type": "uint256"
        },
        {
          "internalType": "uint256",
          "name": "amountRaised",
          "type": "uint256"
        },
        {
          "internalType": "string",
          "name": "imageHash",
          "type": "string"
        },
        {
          "internalType": "string",
          "name": "category",
          "type": "string"
        },
        {
          "internalType": "bool",
          "name": "goalReached",
          "type": "bool"
        },
        {
          "internalType": "bool",
          "name": "withdrawn",
          "type": "bool"
        },
        {
          "internalType": "enum CrowdfundingPlatform.CampaignStatus",
          "name": "status",
          "type": "uint8"
        }
      ],
      "stateMutability": "view",
      "type": "function"
    },
    {
      "inputs": [
        {
          "internalType": "uint256",
          "name": "_campaignId",
          "type": "uint256"
        }
      ],
      "name": "cancelCampaign",
      "outputs": [],
      "stateMutability": "nonpayable",
      "type": "function"
    },
    {
      "inputs": [
        {
          "internalType": "uint256",
          "name": "",
          "type": "uint256"
        }
      ],
      "name": "categories",
      "outputs": [
        {
          "internalType": "string",
          "name": "",
          "type": "string"
        }
      ],
      "stateMutability": "view",
      "type": "function"
    },
    {
      "inputs": [
        {
          "internalType": "uint256",
          "name": "_campaignId",
          "type": "uint256"
        }
      ],
      "name": "claimRefund",
      "outputs": [],
      "stateMutability": "nonpayable",
      "type": "function"
    },
    {
      "inputs": [
        {
          "internalType": "uint256",
          "name": "_campaignId",
          "type": "uint256"
        }
      ],
      "name": "contribute",
      "outputs": [],
      "stateMutability": "payable",
      "type": "function"
    },
    {
      "inputs": [
        {
          "internalType": "uint256",
          "name": "",
          "type": "uint256"
        },
        {
          "internalType": "address",
          "name": "",
          "type": "address"
        }
      ],
      "name": "contributions",
      "outputs": [
        {
          "internalType": "uint256",
          "name": "",
          "type": "uint256"
        }
      ],
      "stateMutability": "view",
      "type": "function"
    },
    {
      "inputs": [
        {
          "internalType": "string",
          "name": "_title",
          "type": "string"
        },
        {
          "internalType": "string",
          "name": "_description",
          "type": "string"
        },
        {
          "internalType": "uint256",
          "name": "_goal",
          "type": "uint256"
        },
        {
          "internalType": "uint256",
          "name": "_durationInDays",
          "type": "uint256"
        },
        {
          "internalType": "string",
          "name": "_imageHash",
          "type": "string"
        },
        {
          "internalType": "string",
          "name": "_category",
          "type": "string"
        }
      ],
      "name": "createCampaign",
      "outputs": [
        {
          "internalType": "uint256",
          "name": "",
          "type": "uint256"
        }
      ],
      "stateMutability": "payable",
      "type": "function"
    },
    {
      "inputs": [],
      "name": "getActiveCampaigns",
      "outputs": [
        {
          "components": [
            {
              "internalType": "address",
              "name": "creator",
              "type": "address"
            },
            {
              "internalType": "string",
              "name": "title",
              "type": "string"
            },
            {
              "internalType": "string",
              "name": "description",
              "type": "string"
            },
            {
              "internalType": "uint256",
              "name": "goal",
              "type": "uint256"
            },
            {
              "internalType": "uint256",
              "name": "deadline",
              "type": "uint256"
            },
            {
              "internalType": "uint256",
              "name": "amountRaised",
              "type": "uint256"
            },
            {
              "internalType": "string",
              "name": "imageHash",
              "type": "string"
            },
            {
              "internalType": "string",
              "name": "category",
              "type": "string"
            },
            {
              "internalType": "bool",
              "name": "goalReached",
              "type": "bool"
            },
            {
              "internalType": "bool",
              "name": "withdrawn",
              "type": "bool"
            },
            {
              "internalType": "enum CrowdfundingPlatform.CampaignStatus",
              "name": "status",
              "type": "uint8"
            }
          ],
          "internalType": "struct CrowdfundingPlatform.Campaign[]",
          "name": "",
          "type": "tuple[]"
        }
      ],
      "stateMutability": "view",
      "type": "function"
    },
    {
      "inputs": [
        {
          "internalType": "uint256",
          "name": "_campaignId",
          "type": "uint256"
        }
      ],
      "name": "getCampaign",
      "outputs": [
        {
          "components": [
            {
              "internalType": "address",
              "name": "creator",
              "type": "address"
            },
            {
              "internalType": "string",
              "name": "title",
              "type": "string"
            },
            {
              "internalType": "string",
              "name": "description",
              "type": "string"
            },
            {
              "internalType": "uint256",
              "name": "goal",
              "type": "uint256"
            },
            {
              "internalType": "uint256",
              "name": "deadline",
              "type": "uint256"
            },
            {
              "internalType": "uint256",
              "name": "amountRaised",
              "type": "uint256"
            },
            {
              "internalType": "string",
              "name": "imageHash",
              "type": "string"
            },
            {
              "internalType": "string",
              "name": "category",
              "type": "string"
            },
            {
              "internalType": "bool",
              "name": "goalReached",
              "type": "bool"
            },
            {
              "internalType": "bool",
              "name": "withdrawn",
              "type": "bool"
            },
            {
              "internalType": "enum CrowdfundingPlatform.CampaignStatus",
              "name": "status",
              "type": "uint8"
            }
          ],
          "internalType": "struct CrowdfundingPlatform.Campaign",
          "name": "",
          "type": "tuple"
        }
      ],
      "stateMutability": "view",
      "type": "function"
    },
    {
      "inputs": [],
      "name": "getCampaignCount",
      "outputs": [
        {
          "internalType": "uint256",
          "name": "",
          "type": "uint256"
        }
      ],
      "stateMutability": "view",
      "type": "function"
    },
    {
      "inputs": [],
      "name": "getCampaigns",
      "outputs": [
        {
          "components": [
            {
              "internalType": "address",
              "name": "creator",
              "type": "address"
            },
            {
              "internalType": "string",
              "name": "title",
              "type": "string"
            },
            {
              "internalType": "string",
              "name": "description",
              "type": "string"
            },
            {
              "internalType": "uint256",
              "name": "goal",
              "type": "uint256"
            },
            {
              "internalType": "uint256",
              "name": "deadline",
              "type": "uint256"
            },
            {
              "internalType": "uint256",
              "name": "amountRaised",
              "type": "uint256"
            },
            {
              "internalType": "string",
              "name": "imageHash",
              "type": "string"
            },
            {
              "internalType": "string",
              "name": "category",
              "type": "string"
            },
            {
              "internalType": "bool",
              "name": "goalReached",
              "type": "bool"
            },
            {
              "internalType": "bool",
              "name": "withdrawn",
              "type": "bool"
            },
            {
              "internalType": "enum CrowdfundingPlatform.CampaignStatus",
              "name": "status",
              "type": "uint8"
            }
          ],
          "internalType": "struct CrowdfundingPlatform.Campaign[]",
          "name": "",
          "type": "tuple[]"
        }
      ],
      "stateMutability": "view",
      "type": "function"
    },
    {
      "inputs": [],
      "name": "getCategories",
      "outputs": [
        {
          "internalType": "string[]",
          "name": "",
          "type": "string[]"
        }
      ],
      "stateMutability": "view",
      "type": "function"
    },
    {
      "inputs": [
        {
          "internalType": "uint256",
          "name": "_campaignId",
          "type": "uint256"
        },
        {
          "internalType": "address",
          "name": "_contributor",
          "type": "address"
        }
      ],
      "name": "getContribution",
      "outputs": [
        {
          "internalType": "uint256",
          "name": "",
          "type": "uint256"
        }
      ],
      "stateMutability": "view",
      "type": "function"
    },
    {
      "inputs": [
        {
          "internalType": "uint256",
          "name": "_campaignId",
          "type": "uint256"
        }
      ],
      "name": "getContributors",
      "outputs": [
        {
          "internalType": "address[]",
          "name": "",
          "type": "address[]"
        }
      ],
      "stateMutability": "view",
      "type": "function"
    },
    {
      "inputs": [],
      "name": "pause",
      "outputs": [],
      "stateMutability": "nonpayable",
      "type": "function"
    },
    {
      "inputs": [],
      "name": "paused",
      "outputs": [
        {
          "internalType": "bool",
          "name": "",
          "type": "bool"
        }
      ],
      "stateMutability": "view",
      "type": "function"
    },
    {
      "inputs": [],
      "name": "platformFee",
      "outputs": [
        {
          "internalType": "uint256",
          "name": "",
          "type": "uint256"
        }
      ],
      "stateMutability": "view",
      "type": "function"
    },
    {
      "inputs": [],
      "name": "platformOwner",
      "outputs": [
        {
          "internalType": "address",
          "name": "",
          "type": "address"
        }
      ],
      "stateMutability": "view",
      "type": "function"
    },
    {
      "inputs": [
        {
          "internalType": "uint256",
          "name": "_newFee",
          "type": "uint256"
        }
      ],
      "name": "setPlatformFee",
      "outputs": [],
      "stateMutability": "nonpayable",
      "type": "function"
    },
    {
      "inputs": [
        {
          "internalType": "address",
          "name": "_newOwner",
          "type": "address"
        }
      ],
      "name": "transferOwnership",
      "outputs": [],
      "stateMutability": "nonpayable",
      "type": "function"
    },
    {
      "inputs": [],
      "name": "unpause",
      "outputs": [],
      "stateMutability": "nonpayable",
      "type": "function"
    },
    {
      "inputs": [
        {
          "internalType": "uint256",
          "name": "_campaignId",
          "type": "uint256"
        },
        {
          "internalType": "string",
          "name": "_newTitle",
          "type": "string"
        },
        {
          "internalType": "string",
          "name": "_newDescription",
          "type": "string"
        },
        {
          "internalType": "string",
          "name": "_newImageHash",
          "type": "string"
        }
      ],
      "name": "updateCampaign",
      "outputs": [],
      "stateMutability": "nonpayable",
      "type": "function"
    },
    {
      "inputs": [
        {
          "internalType": "uint256",
          "name": "_campaignId",
          "type": "uint256"
        }
      ],
      "name": "withdrawFunds",
      "outputs": [],
      "stateMutability": "nonpayable",
      "type": "function"
    }
  ],
  "bytecode": "0x60806040523480156200001157600080fd5b5060405162003d1038038062003d10833981016040819052620000349162000290565b60016000819055805460ff191690556103e88111156200009a5760405162461bcd60e51b815260206004820152601960248201527f4665652065786365656473206d6178696d756d206c696d697400000000000000604482015260640160405180910390fd5b600680546001600160a01b0319163317905560078190556008805460018101825560009190915260408051808201909152600a815269546563686e6f6c6f677960b01b602082015260008051602062003cf0833981519152909101906200010290826200034f565b5060088054600181018255600091909152604080518082019091526003815262105c9d60ea1b602082015260008051602062003cf0833981519152909101906200014d90826200034f565b5060088054600181018255600091909152604080518082019091526009815268436f6d6d756e69747960b81b602082015260008051602062003cf0833981519152909101906200019e90826200034f565b50600880546001810182556000919091526040805180820190915260078152664368617269747960c81b602082015260008051602062003cf083398151915290910190620001ed90826200034f565b50600880546001810182556000919091526040805180820190915260078152662330b9b434b7b760c91b602082015260008051602062003cf0833981519152909101906200023c90826200034f565b506008805460018101825560009190915260408051808201909152600481526346696c6d60e01b602082015260008051602062003cf0833981519152909101906200028890826200034f565b50506200041b565b600060208284031215620002a357600080fd5b5051919050565b634e487b7160e01b600052604160045260246000fd5b600181811c90821680620002d557607f821691505b602082108103620002f657634e487b7160e01b600052602260045260246000fd5b50919050565b601f8211156200034a57600081815260208120601f850160051c81016020861015620003255750805b601f850160051c820191505b81811015620003465782815560010162000331565b5050505b505050565b81516001600160401b038111156200036b576200036b620002aa565b62000383816200037c8454620002c0565b84620002fc565b602080601f831160018114620003bb5760008415620003a25750858301515b600019600386901b1c1916600185901b17855562000346565b600085815260208120601f198616915b82811015620003ec57888601518255948401946001909101908401620003cb565b50858210156200040b5787850151600019600388901b60f8161c191681555b5050505050600190811b01905550565b6138c5806200042b6000396000f3fe6080604052600436106101815760003560e01c80635c975abb116100d1578063c1cbbca71161008a578063e081dbf911610064578063e081dbf91461047a578063e3ae89a31461049a578063f2fde38b146104ba578063ff96de21146104da57600080fd5b8063c1cbbca714610425578063c362b15614610438578063c6cdbe5e1461044d57600080fd5b80635c975abb1461038d5780636caa9218146103b05780638456cb59146103c55780639f752cdd146103da578063a6b03633146103ed578063bc063e1a1461040f57600080fd5b80633d891f591161013e5780634db0412c116101185780634db0412c146102e65780634df8ccb1146103085780635598f8cc146103405780635b7baf641461036d57600080fd5b80633d891f59146102795780633f4ba83a146102b157806345598b4a146102c657600080fd5b806312e8e2c314610186578063141961bc146101a8578063155dd5ee146101e857806326232a2e146102085780632e0dcbf71461022c5780633c1ab00f1461024c575b600080fd5b34801561019257600080fd5b506101a66101a1366004612d42565b6104fa565b005b3480156101b457600080fd5b506101c86101c3366004612d42565b6105ba565b6040516101df9b9a99989796959493929190612dd9565b60405180910390f35b3480156101f457600080fd5b506101a6610203366004612d42565b610841565b34801561021457600080fd5b5061021e60075481565b6040519081526020016101df565b34801561023857600080fd5b506101a6610247366004612e7f565b610c79565b34801561025857600080fd5b5061026c610267366004612d42565b610e22565b6040516101df9190612ef1565b34801561028557600080fd5b5061021e610294366004612f5a565b600560209081526000928352604080842090915290825290205481565b3480156102bd57600080fd5b506101a6610eb2565b3480156102d257600080fd5b506101a66102e1366004612d42565b610ee6565b3480156102f257600080fd5b506102fb611043565b6040516101df9190612f86565b34801561031457600080fd5b50600654610328906001600160a01b031681565b6040516001600160a01b0390911681526020016101df565b34801561034c57600080fd5b5061036061035b366004612d42565b61111c565b6040516101df91906130c0565b34801561037957600080fd5b506101a6610388366004612d42565b611431565b34801561039957600080fd5b5060015460ff1660405190151581526020016101df565b3480156103bc57600080fd5b5060025461021e565b3480156103d157600080fd5b506101a661177b565b61021e6103e836600461317d565b6117ad565b3480156103f957600080fd5b50610402611cca565b6040516101df919061323c565b34801561041b57600080fd5b5061021e6103e881565b6101a6610433366004612d42565b612047565b34801561044457600080fd5b50610402612257565b34801561045957600080fd5b5061046d610468366004612d42565b6126b7565b6040516101df9190613291565b34801561048657600080fd5b5061021e610495366004612f5a565b612763565b3480156104a657600080fd5b506101a66104b53660046132a4565b6127b1565b3480156104c657600080fd5b506101a66104d5366004613336565b612a8a565b3480156104e657600080fd5b506103286104f5366004613351565b612b1e565b6006546001600160a01b0316331461052d5760405162461bcd60e51b815260040161052490613373565b60405180910390fd5b6103e881111561057f5760405162461bcd60e51b815260206004820152601960248201527f4665652065786365656473206d6178696d756d206c696d6974000000000000006044820152606401610524565b60078190556040518181527f72b05fd7e6e407beabebd17ae121166880efdc19a2a9b08063eafc0c001e470a9060200160405180910390a150565b600360205260009081526040902080546001820180546001600160a01b0390921692916105e69061339f565b80601f01602080910402602001604051908101604052809291908181526020018280546106129061339f565b801561065f5780601f106106345761010080835404028352916020019161065f565b820191906000526020600020905b81548152906001019060200180831161064257829003601f168201915b5050505050908060020180546106749061339f565b80601f01602080910402602001604051908101604052809291908181526020018280546106a09061339f565b80156106ed5780601f106106c2576101008083540402835291602001916106ed565b820191906000526020600020905b8154815290600101906020018083116106d057829003601f168201915b5050505050908060030154908060040154908060050154908060060180546107149061339f565b80601f01602080910402602001604051908101604052809291908181526020018280546107409061339f565b801561078d5780601f106107625761010080835404028352916020019161078d565b820191906000526020600020905b81548152906001019060200180831161077057829003601f168201915b5050505050908060070180546107a29061339f565b80601f01602080910402602001604051908101604052809291908181526020018280546107ce9061339f565b801561081b5780601f106107f05761010080835404028352916020019161081b565b820191906000526020600020905b8154815290600101906020018083116107fe57829003601f168201915b5050506008909301549192505060ff80821691610100810482169162010000909104168b565b60008181526003602052604090205481906001600160a01b031633146108795760405162461bcd60e51b8152600401610524906133d3565b610881612b56565b8160025481106108a35760405162461bcd60e51b815260040161052490613401565b6000838152600360205260409020600401548390421015806108f25750600360008281526003602081905260409091206008015462010000900460ff16908111156108f0576108f0612da1565b145b6109355760405162461bcd60e51b8152602060048201526014602482015273111958591b1a5b99481b9bdd081c995858da195960621b6044820152606401610524565b61093d612b9c565b600084815260036020819052604090912090810154600582015410156109945760405162461bcd60e51b815260206004820152600c60248201526b11dbd85b081b9bdd081b595d60a21b6044820152606401610524565b6008810154610100900460ff16156109ee5760405162461bcd60e51b815260206004820152601760248201527f46756e647320616c72656164792077697468647261776e0000000000000000006044820152606401610524565b6003600882015462010000900460ff166003811115610a0f57610a0f612da1565b03610a555760405162461bcd60e51b815260206004820152601660248201527510d85b5c185a59db881dd85cc818d85b98d95b1b195960521b6044820152606401610524565b60088101805462ffff00191662010100179055600581015460075460009061271090610a81908461344e565b610a8b919061346b565b90506000610a99828461348d565b90508115610b46576006546040516000916001600160a01b03169084908381818185875af1925050503d8060008114610aee576040519150601f19603f3d011682016040523d82523d6000602084013e610af3565b606091505b5050905080610b445760405162461bcd60e51b815260206004820152601c60248201527f506c6174666f726d20666565207472616e73666572206661696c6564000000006044820152606401610524565b505b83546040516000916001600160a01b03169083908381818185875af1925050503d8060008114610b92576040519150601f19603f3d011682016040523d82523d6000602084013e610b97565b606091505b5050905080610be85760405162461bcd60e51b815260206004820152601c60248201527f43726561746f722066756e64207472616e73666572206661696c6564000000006044820152606401610524565b84546040518381526001600160a01b03909116908a907ff440aec6b52895984d061d622e6edeba6210f7c3e059be920663140c084560d79060200160405180910390a3887f7e5e6bfcab605d9254dbb5c3b4c8bd65ee4705bb30b1fc434d9651d24d368f366001604051610c5c91906134a0565b60405180910390a25050505050610c736001600055565b50505050565b6006546001600160a01b03163314610ca35760405162461bcd60e51b815260040161052490613373565b80610cf05760405162461bcd60e51b815260206004820152601860248201527f43617465676f72792063616e6e6f7420626520656d70747900000000000000006044820152606401610524565b60005b600854811015610da6578282604051610d0d9291906134ae565b604051809103902060088281548110610d2857610d286134be565b90600052602060002001604051610d3f91906134d4565b604051809103902003610d945760405162461bcd60e51b815260206004820152601760248201527f43617465676f727920616c7265616479206578697374730000000000000000006044820152606401610524565b80610d9e8161354a565b915050610cf3565b50600880546001810182556000919091527ff3f7a9fe364faab93b216da50a3214154f22a0a2b415b23a84c8169e8b636ee301610de48284836135b1565b507fdb74f4d32b97da9b3b9b907aa3fd5df938c018e13fe235d9883d0a0836c6bddb8282604051610e16929190613672565b60405180910390a15050565b6060816002548110610e465760405162461bcd60e51b815260040161052490613401565b60008381526004602090815260409182902080548351818402810184019094528084529091830182828015610ea457602002820191906000526020600020905b81546001600160a01b03168152600190910190602001808311610e86575b505050505091505b50919050565b6006546001600160a01b03163314610edc5760405162461bcd60e51b815260040161052490613373565b610ee4612bf5565b565b60008181526003602052604090205481906001600160a01b03163314610f1e5760405162461bcd60e51b8152600401610524906133d3565b610f26612b56565b816002548110610f485760405162461bcd60e51b815260040161052490613401565b60008381526003602052604090206004015483904210610f7a5760405162461bcd60e51b8152600401610524906136a1565b600084815260036020526040812090600882015462010000900460ff166003811115610fa857610fa8612da1565b14610fc55760405162461bcd60e51b8152600401610524906136ca565b60088101805462ff000019166203000017905560405185907f403b6718db13878ac16c27decb08f09d3a10f116c7c25af575ff5bfbc11ae9e690600090a2847f7e5e6bfcab605d9254dbb5c3b4c8bd65ee4705bb30b1fc434d9651d24d368f36600360405161103491906134a0565b60405180910390a25050505050565b60606008805480602002602001604051908101604052809291908181526020016000905b828210156111135783829060005260206000200180546110869061339f565b80601f01602080910402602001604051908101604052809291908181526020018280546110b29061339f565b80156110ff5780601f106110d4576101008083540402835291602001916110ff565b820191906000526020600020905b8154815290600101906020018083116110e257829003601f168201915b505050505081526020019060010190611067565b50505050905090565b611124612ccb565b8160025481106111465760405162461bcd60e51b815260040161052490613401565b6000838152600360209081526040918290208251610160810190935280546001600160a01b0316835260018101805491928401916111839061339f565b80601f01602080910402602001604051908101604052809291908181526020018280546111af9061339f565b80156111fc5780601f106111d1576101008083540402835291602001916111fc565b820191906000526020600020905b8154815290600101906020018083116111df57829003601f168201915b505050505081526020016002820180546112159061339f565b80601f01602080910402602001604051908101604052809291908181526020018280546112419061339f565b801561128e5780601f106112635761010080835404028352916020019161128e565b820191906000526020600020905b81548152906001019060200180831161127157829003601f168201915b505050505081526020016003820154815260200160048201548152602001600582015481526020016006820180546112c59061339f565b80601f01602080910402602001604051908101604052809291908181526020018280546112f19061339f565b801561133e5780601f106113135761010080835404028352916020019161133e565b820191906000526020600020905b81548152906001019060200180831161132157829003601f168201915b505050505081526020016007820180546113579061339f565b80601f01602080910402602001604051908101604052809291908181526020018280546113839061339f565b80156113d05780601f106113a5576101008083540402835291602001916113d0565b820191906000526020600020905b8154815290600101906020018083116113b357829003601f168201915b5050509183525050600882015460ff8082161515602084015261010082048116151560408401526060909201916201000090910416600381111561141657611416612da1565b600381111561142757611427612da1565b9052509392505050565b611439612b56565b80600254811061145b5760405162461bcd60e51b815260040161052490613401565b6000828152600360205260409020600401548290421015806114aa5750600360008281526003602081905260409091206008015462010000900460ff16908111156114a8576114a8612da1565b145b6114ed5760405162461bcd60e51b8152602060048201526014602482015273111958591b1a5b99481b9bdd081c995858da195960621b6044820152606401610524565b6114f5612b9c565b600083815260036020526040812060048101549091904210801590611521575081600301548260050154105b905060006003600884015462010000900460ff16600381111561154657611546612da1565b14905081806115525750805b61159e5760405162461bcd60e51b815260206004820181905260248201527f43616d706169676e206973207375636365737366756c206f72206163746976656044820152606401610524565b6000868152600560209081526040808320338452909152902054806116055760405162461bcd60e51b815260206004820152601a60248201527f4e6f20636f6e747269627574696f6e7320746f20726566756e640000000000006044820152606401610524565b60008781526005602090815260408083203384529091528120819055600885015462010000900460ff16600381111561164057611640612da1565b14801561164b575081155b1561169f5760088401805462ff000019166202000017905560405187907f7e5e6bfcab605d9254dbb5c3b4c8bd65ee4705bb30b1fc434d9651d24d368f3690611696906002906134a0565b60405180910390a25b604051600090339083908381818185875af1925050503d80600081146116e1576040519150601f19603f3d011682016040523d82523d6000602084013e6116e6565b606091505b50509050806117305760405162461bcd60e51b81526020600482015260166024820152751499599d5b99081d1c985b9cd9995c8819985a5b195960521b6044820152606401610524565b604051828152339089907ff3f402280ef0a7905e124aa621b65eaeb2725c343e8b36d398ed78c29daf285c9060200160405180910390a350505050506117766001600055565b505050565b6006546001600160a01b031633146117a55760405162461bcd60e51b815260040161052490613373565b610ee4612c47565b60006117b7612b56565b60008751116118005760405162461bcd60e51b81526020600482015260156024820152745469746c652063616e6e6f7420626520656d70747960581b6044820152606401610524565b6064875111156118525760405162461bcd60e51b815260206004820152601c60248201527f5469746c652065786365656473203130302063686172616374657273000000006044820152606401610524565b60008651116118a35760405162461bcd60e51b815260206004820152601b60248201527f4465736372697074696f6e2063616e6e6f7420626520656d70747900000000006044820152606401610524565b6103e8865111156118c65760405162461bcd60e51b8152600401610524906136fa565b600085116119165760405162461bcd60e51b815260206004820152601b60248201527f476f616c206d7573742062652067726561746572207468616e203000000000006044820152606401610524565b600084116119665760405162461bcd60e51b815260206004820152601f60248201527f4475726174696f6e206d7573742062652067726561746572207468616e2030006044820152606401610524565b6000805b6008548110156119ce5783805190602001206008828154811061198f5761198f6134be565b906000526020600020016040516119a691906134d4565b6040518091039020036119bc57600191506119ce565b806119c68161354a565b91505061196a565b5080611a1c5760405162461bcd60e51b815260206004820152601960248201527f496e76616c69642063616d706169676e2063617465676f7279000000000000006044820152606401610524565b6002546000611a2e876201518061344e565b611a38904261373d565b9050604051806101600160405280336001600160a01b031681526020018b81526020018a81526020018981526020018281526020016000815260200187815260200186815260200160001515815260200160001515815260200160006003811115611aa557611aa5612da1565b90526000838152600360209081526040909120825181546001600160a01b0319166001600160a01b03909116178155908201516001820190611ae79082613750565b5060408201516002820190611afc9082613750565b50606082015160038201556080820151600482015560a0820151600582015560c08201516006820190611b2f9082613750565b5060e08201516007820190611b449082613750565b506101008281015160088301805461012086015161ffff1990911692151561ff0019169290921791151590920217808255610140840151919062ff0000191662010000836003811115611b9957611b99612da1565b0217905550506002805491506000611bb08361354a565b9190505550336001600160a01b0316827ff9bef86f202a8a7ac47c00e895ac2c191749da86fd955af550e31f9a52207bdb8c8b858a604051611bf59493929190613810565b60405180910390a33415611cbd576000828152600360209081526040808320346005918201819055908352818420338086529084528285208290558685526004845291842080546001810182559085529290932090910180546001600160a01b03191690911790558811611c80576000828152600360205260409020600801805460ff191660011790555b60408051348082526020820152339184917ff9b7589b7a8d939b9da5dae90770378fe5fd7802be5d66432e85bedbdbfbcb7a910160405180910390a35b5098975050505050505050565b6060600060025467ffffffffffffffff811115611ce957611ce96130da565b604051908082528060200260200182016040528015611d2257816020015b611d0f612ccb565b815260200190600190039081611d075790505b50905060005b600254811015610eac576000818152600360209081526040918290208251610160810190935280546001600160a01b031683526001810180549192840191611d6f9061339f565b80601f0160208091040260200160405190810160405280929190818152602001828054611d9b9061339f565b8015611de85780601f10611dbd57610100808354040283529160200191611de8565b820191906000526020600020905b815481529060010190602001808311611dcb57829003601f168201915b50505050508152602001600282018054611e019061339f565b80601f0160208091040260200160405190810160405280929190818152602001828054611e2d9061339f565b8015611e7a5780601f10611e4f57610100808354040283529160200191611e7a565b820191906000526020600020905b815481529060010190602001808311611e5d57829003601f168201915b50505050508152602001600382015481526020016004820154815260200160058201548152602001600682018054611eb19061339f565b80601f0160208091040260200160405190810160405280929190818152602001828054611edd9061339f565b8015611f2a5780601f10611eff57610100808354040283529160200191611f2a565b820191906000526020600020905b815481529060010190602001808311611f0d57829003601f168201915b50505050508152602001600782018054611f439061339f565b80601f0160208091040260200160405190810160405280929190818152602001828054611f6f9061339f565b8015611fbc5780601f10611f9157610100808354040283529160200191611fbc565b820191906000526020600020905b815481529060010190602001808311611f9f57829003601f168201915b5050509183525050600882015460ff8082161515602084015261010082048116151560408401526060909201916201000090910416600381111561200257612002612da1565b600381111561201357612013612da1565b81525050828281518110612029576120296134be565b6020026020010181905250808061203f9061354a565b915050611d28565b61204f612b56565b8060025481106120715760405162461bcd60e51b815260040161052490613401565b600082815260036020526040902060040154829042106120a35760405162461bcd60e51b8152600401610524906136a1565b6120ab612b9c565b600083815260036020526040812090600882015462010000900460ff1660038111156120d9576120d9612da1565b146120f65760405162461bcd60e51b8152600401610524906136ca565b600034116121525760405162461bcd60e51b815260206004820152602360248201527f436f6e747269627574696f6e206d75737420626520677265617465722074686160448201526206e20360ec1b6064820152608401610524565b600084815260056020908152604080832033845290915281205490036121a15760008481526004602090815260408220805460018101825590835291200180546001600160a01b031916331790555b6000848152600560209081526040808320338452909152812080543492906121ca90849061373d565b92505081905550348160050160008282546121e5919061373d565b909155505060038101546005820154106122095760088101805460ff191660011790555b6005810154604080513481526020810192909252339186917ff9b7589b7a8d939b9da5dae90770378fe5fd7802be5d66432e85bedbdbfbcb7a910160405180910390a3506117766001600055565b60606000805b6002548110156122d657600081815260036020819052604082206008015462010000900460ff169081111561229457612294612da1565b1480156122b1575060008181526003602052604090206004015442105b156122c457816122c08161354a565b9250505b806122ce8161354a565b91505061225d565b5060008167ffffffffffffffff8111156122f2576122f26130da565b60405190808252806020026020018201604052801561232b57816020015b612318612ccb565b8152602001906001900390816123105790505b5090506000805b6002548110156126ae57600081815260036020819052604082206008015462010000900460ff169081111561236957612369612da1565b148015612386575060008181526003602052604090206004015442105b1561269c576000818152600360209081526040918290208251610160810190935280546001600160a01b0316835260018101805491928401916123c89061339f565b80601f01602080910402602001604051908101604052809291908181526020018280546123f49061339f565b80156124415780601f1061241657610100808354040283529160200191612441565b820191906000526020600020905b81548152906001019060200180831161242457829003601f168201915b5050505050815260200160028201805461245a9061339f565b80601f01602080910402602001604051908101604052809291908181526020018280546124869061339f565b80156124d35780601f106124a8576101008083540402835291602001916124d3565b820191906000526020600020905b8154815290600101906020018083116124b657829003601f168201915b5050505050815260200160038201548152602001600482015481526020016005820154815260200160068201805461250a9061339f565b80601f01602080910402602001604051908101604052809291908181526020018280546125369061339f565b80156125835780601f1061255857610100808354040283529160200191612583565b820191906000526020600020905b81548152906001019060200180831161256657829003601f168201915b5050505050815260200160078201805461259c9061339f565b80601f01602080910402602001604051908101604052809291908181526020018280546125c89061339f565b80156126155780601f106125ea57610100808354040283529160200191612615565b820191906000526020600020905b8154815290600101906020018083116125f857829003601f168201915b5050509183525050600882015460ff8082161515602084015261010082048116151560408401526060909201916201000090910416600381111561265b5761265b612da1565b600381111561266c5761266c612da1565b81525050838381518110612682576126826134be565b602002602001018190525081806126989061354a565b9250505b806126a68161354a565b915050612332565b50909392505050565b600881815481106126c757600080fd5b9060005260206000200160009150905080546126e29061339f565b80601f016020809104026020016040519081016040528092919081815260200182805461270e9061339f565b801561275b5780601f106127305761010080835404028352916020019161275b565b820191906000526020600020905b81548152906001019060200180831161273e57829003601f168201915b505050505081565b60008260025481106127875760405162461bcd60e51b815260040161052490613401565b505060009182526005602090815260408084206001600160a01b0393909316845291905290205490565b60008481526003602052604090205484906001600160a01b031633146127e95760405162461bcd60e51b8152600401610524906133d3565b6127f1612b56565b8460025481106128135760405162461bcd60e51b815260040161052490613401565b600086815260036020526040902060040154869042106128455760405162461bcd60e51b8152600401610524906136a1565b600087815260036020526040812090600882015462010000900460ff16600381111561287357612873612da1565b146128905760405162461bcd60e51b8152600401610524906136ca565b6005810154156129085760405162461bcd60e51b815260206004820152603960248201527f43616e6e6f74207570646174652063616d706169676e20616674657220636f6e60448201527f747269627574696f6e732068617665206265656e206d616465000000000000006064820152608401610524565b60008751116129515760405162461bcd60e51b81526020600482015260156024820152745469746c652063616e6e6f7420626520656d70747960581b6044820152606401610524565b6064875111156129a35760405162461bcd60e51b815260206004820152601c60248201527f5469746c652065786365656473203130302063686172616374657273000000006044820152606401610524565b60008651116129f45760405162461bcd60e51b815260206004820152601b60248201527f4465736372697074696f6e2063616e6e6f7420626520656d70747900000000006044820152606401610524565b6103e886511115612a175760405162461bcd60e51b8152600401610524906136fa565b60018101612a258882613750565b5060028101612a348782613750565b5060068101612a438682613750565b50877f40a1fffc33e845e46183de4e41eccc4b3a4b0bdf82a658cd4eba81bd2d126c45888888604051612a789392919061384c565b60405180910390a25050505050505050565b6006546001600160a01b03163314612ab45760405162461bcd60e51b815260040161052490613373565b6001600160a01b038116612afc5760405162461bcd60e51b815260206004820152600f60248201526e496e76616c6964206164647265737360881b6044820152606401610524565b600680546001600160a01b0319166001600160a01b0392909216919091179055565b60046020528160005260406000208181548110612b3a57600080fd5b6000918252602090912001546001600160a01b03169150829050565b60015460ff1615610ee45760405162461bcd60e51b815260206004820152601060248201526f14185d5cd8589b194e881c185d5cd95960821b6044820152606401610524565b600260005403612bee5760405162461bcd60e51b815260206004820152601f60248201527f5265656e7472616e637947756172643a207265656e7472616e742063616c6c006044820152606401610524565b6002600055565b612bfd612c82565b6001805460ff191690557f5db9ee0a495bf2e6ff9c91a7834c1ba4fdd244a5e8aa4e537bd38aeae4b073aa335b6040516001600160a01b03909116815260200160405180910390a1565b612c4f612b56565b6001805460ff1916811790557f62e78cea01bee320cd4e420270b5ea74000d11b0c9f74754ebdbfc544b05a25833612c2a565b60015460ff16610ee45760405162461bcd60e51b815260206004820152601460248201527314185d5cd8589b194e881b9bdd081c185d5cd95960621b6044820152606401610524565b60405180610160016040528060006001600160a01b031681526020016060815260200160608152602001600081526020016000815260200160008152602001606081526020016060815260200160001515815260200160001515815260200160006003811115612d3d57612d3d612da1565b905290565b600060208284031215612d5457600080fd5b5035919050565b6000815180845260005b81811015612d8157602081850181015186830182015201612d65565b506000602082860101526020601f19601f83011685010191505092915050565b634e487b7160e01b600052602160045260246000fd5b60048110612dd557634e487b7160e01b600052602160045260246000fd5b9052565b6001600160a01b038c16815261016060208201819052600090612dfe8382018e612d5b565b90508281036040840152612e12818d612d5b565b90508a60608401528960808401528860a084015282810360c0840152612e388189612d5b565b905082810360e0840152612e4c8188612d5b565b915050841515610100830152831515610120830152612e6f610140830184612db7565b9c9b505050505050505050505050565b60008060208385031215612e9257600080fd5b823567ffffffffffffffff80821115612eaa57600080fd5b818501915085601f830112612ebe57600080fd5b813581811115612ecd57600080fd5b866020828501011115612edf57600080fd5b60209290920196919550909350505050565b6020808252825182820181905260009190848201906040850190845b81811015612f325783516001600160a01b031683529284019291840191600101612f0d565b50909695505050505050565b80356001600160a01b0381168114612f5557600080fd5b919050565b60008060408385031215612f6d57600080fd5b82359150612f7d60208401612f3e565b90509250929050565b6000602080830181845280855180835260408601915060408160051b870101925083870160005b82811015612fdb57603f19888603018452612fc9858351612d5b565b94509285019290850190600101612fad565b5092979650505050505050565b80516001600160a01b031682526000610160602083015181602086015261301182860182612d5b565b9150506040830151848203604086015261302b8282612d5b565b915050606083015160608501526080830151608085015260a083015160a085015260c083015184820360c08601526130638282612d5b565b91505060e083015184820360e086015261307d8282612d5b565b915050610100808401516130948287018215159052565b505061012083810151151590850152610140808401516130b682870182612db7565b5090949350505050565b6020815260006130d36020830184612fe8565b9392505050565b634e487b7160e01b600052604160045260246000fd5b600082601f83011261310157600080fd5b813567ffffffffffffffff8082111561311c5761311c6130da565b604051601f8301601f19908116603f01168101908282118183101715613144576131446130da565b8160405283815286602085880101111561315d57600080fd5b836020870160208301376000602085830101528094505050505092915050565b60008060008060008060c0878903121561319657600080fd5b863567ffffffffffffffff808211156131ae57600080fd5b6131ba8a838b016130f0565b975060208901359150808211156131d057600080fd5b6131dc8a838b016130f0565b96506040890135955060608901359450608089013591508082111561320057600080fd5b61320c8a838b016130f0565b935060a089013591508082111561322257600080fd5b5061322f89828a016130f0565b9150509295509295509295565b6000602080830181845280855180835260408601915060408160051b870101925083870160005b82811015612fdb57603f1988860301845261327f858351612fe8565b94509285019290850190600101613263565b6020815260006130d36020830184612d5b565b600080600080608085870312156132ba57600080fd5b84359350602085013567ffffffffffffffff808211156132d957600080fd5b6132e5888389016130f0565b945060408701359150808211156132fb57600080fd5b613307888389016130f0565b9350606087013591508082111561331d57600080fd5b5061332a878288016130f0565b91505092959194509250565b60006020828403121561334857600080fd5b6130d382612f3e565b6000806040838503121561336457600080fd5b50508035926020909101359150565b6020808252601290820152712737ba10383630ba3337b9369037bbb732b960711b604082015260600190565b600181811c908216806133b357607f821691505b602082108103610eac57634e487b7160e01b600052602260045260246000fd5b6020808252601490820152732737ba1031b0b6b830b4b3b71031b932b0ba37b960611b604082015260600190565b60208082526017908201527f43616d706169676e20646f6573206e6f74206578697374000000000000000000604082015260600190565b634e487b7160e01b600052601160045260246000fd5b808202811582820484141761346557613465613438565b92915050565b60008261348857634e487b7160e01b600052601260045260246000fd5b500490565b8181038181111561346557613465613438565b602081016134658284612db7565b8183823760009101908152919050565b634e487b7160e01b600052603260045260246000fd5b60008083546134e28161339f565b600182811680156134fa576001811461350f5761353e565b60ff198416875282151583028701945061353e565b8760005260208060002060005b858110156135355781548a82015290840190820161351c565b50505082870194505b50929695505050505050565b60006001820161355c5761355c613438565b5060010190565b601f82111561177657600081815260208120601f850160051c8101602086101561358a5750805b601f850160051c820191505b818110156135a957828155600101613596565b505050505050565b67ffffffffffffffff8311156135c9576135c96130da565b6135dd836135d7835461339f565b83613563565b6000601f84116001811461361157600085156135f95750838201355b600019600387901b1c1916600186901b17835561366b565b600083815260209020601f19861690835b828110156136425786850135825560209485019460019092019101613622565b508682101561365f5760001960f88860031b161c19848701351681555b505060018560011b0183555b5050505050565b60208152816020820152818360408301376000818301604090810191909152601f909201601f19160101919050565b6020808252600f908201526e111958591b1a5b99481c185cdcd959608a1b604082015260600190565b60208082526016908201527543616d706169676e206973206e6f742061637469766560501b604082015260600190565b60208082526023908201527f4465736372697074696f6e20657863656564732031303030206368617261637460408201526265727360e81b606082015260800190565b8082018082111561346557613465613438565b815167ffffffffffffffff81111561376a5761376a6130da565b61377e81613778845461339f565b84613563565b602080601f8311600181146137b3576000841561379b5750858301515b600019600386901b1c1916600185901b1785556135a9565b600085815260208120601f198616915b828110156137e2578886015182559484019460019091019084016137c3565b50858210156138005787850151600019600388901b60f8161c191681555b5050505050600190811b01905550565b6080815260006138236080830187612d5b565b85602084015284604084015282810360608401526138418185612d5b565b979650505050505050565b60608152600061385f6060830186612d5b565b82810360208401526138718186612d5b565b905082810360408401526138858185612d5b565b969550505050505056fea26469706673582212208eba2807f31e98a5331b63f4c1f92ed61f1fd58161408d1d72ea39ae121b767364736f6c63430008130033f3f7a9fe364faab93b216da50a3214154f22a0a2b415b23a84c8169e8b636ee3",
  "linkReferences": {},
  "deployedLinkReferences": {}
}